{
  "_format": "hh-sol-artifact-1",
  "contractName": "FundToken",
  "sourceName": "contracts/FundToken.sol",
  "abi": [
    {
      "inputs": [
        {
          "internalType": "string",
          "name": "name",
          "type": "string"
        },
        {
          "internalType": "string",
          "name": "symbol",
          "type": "string"
        },
        {
          "internalType": "uint8",
          "name": "decimalPlaces",
          "type": "uint8"
        },
        {
          "internalType": "string",
          "name": "fundDescription",
          "type": "string"
        }
      ],
      "stateMutability": "nonpayable",
      "type": "constructor"
    },
    {
      "inputs": [
        {
          "internalType": "address",
          "name": "spender",
          "type": "address"
        },
        {
          "internalType": "uint256",
          "name": "allowance",
          "type": "uint256"
        },
        {
          "internalType": "uint256",
          "name": "needed",
          "type": "uint256"
        }
      ],
      "name": "ERC20InsufficientAllowance",
      "type": "error"
    },
    {
      "inputs": [
        {
          "internalType": "address",
          "name": "sender",
          "type": "address"
        },
        {
          "internalType": "uint256",
          "name": "balance",
          "type": "uint256"
        },
        {
          "internalType": "uint256",
          "name": "needed",
          "type": "uint256"
        }
      ],
      "name": "ERC20InsufficientBalance",
      "type": "error"
    },
    {
      "inputs": [
        {
          "internalType": "address",
          "name": "approver",
          "type": "address"
        }
      ],
      "name": "ERC20InvalidApprover",
      "type": "error"
    },
    {
      "inputs": [
        {
          "internalType": "address",
          "name": "receiver",
          "type": "address"
        }
      ],
      "name": "ERC20InvalidReceiver",
      "type": "error"
    },
    {
      "inputs": [
        {
          "internalType": "address",
          "name": "sender",
          "type": "address"
        }
      ],
      "name": "ERC20InvalidSender",
      "type": "error"
    },
    {
      "inputs": [
        {
          "internalType": "address",
          "name": "spender",
          "type": "address"
        }
      ],
      "name": "ERC20InvalidSpender",
      "type": "error"
    },
    {
      "inputs": [
        {
          "internalType": "address",
          "name": "owner",
          "type": "address"
        }
      ],
      "name": "OwnableInvalidOwner",
      "type": "error"
    },
    {
      "inputs": [
        {
          "internalType": "address",
          "name": "account",
          "type": "address"
        }
      ],
      "name": "OwnableUnauthorizedAccount",
      "type": "error"
    },
    {
      "anonymous": false,
      "inputs": [
        {
          "indexed": true,
          "internalType": "address",
          "name": "owner",
          "type": "address"
        },
        {
          "indexed": true,
          "internalType": "address",
          "name": "spender",
          "type": "address"
        },
        {
          "indexed": false,
          "internalType": "uint256",
          "name": "value",
          "type": "uint256"
        }
      ],
      "name": "Approval",
      "type": "event"
    },
    {
      "anonymous": false,
      "inputs": [
        {
          "indexed": true,
          "internalType": "address",
          "name": "from",
          "type": "address"
        },
        {
          "indexed": false,
          "internalType": "uint256",
          "name": "amount",
          "type": "uint256"
        }
      ],
      "name": "FundTokenBurned",
      "type": "event"
    },
    {
      "anonymous": false,
      "inputs": [
        {
          "indexed": true,
          "internalType": "address",
          "name": "to",
          "type": "address"
        },
        {
          "indexed": false,
          "internalType": "uint256",
          "name": "amount",
          "type": "uint256"
        }
      ],
      "name": "FundTokenMinted",
      "type": "event"
    },
    {
      "anonymous": false,
      "inputs": [
        {
          "indexed": true,
          "internalType": "address",
          "name": "previousOwner",
          "type": "address"
        },
        {
          "indexed": true,
          "internalType": "address",
          "name": "newOwner",
          "type": "address"
        }
      ],
      "name": "OwnershipTransferred",
      "type": "event"
    },
    {
      "anonymous": false,
      "inputs": [
        {
          "indexed": true,
          "internalType": "address",
          "name": "from",
          "type": "address"
        },
        {
          "indexed": true,
          "internalType": "address",
          "name": "to",
          "type": "address"
        },
        {
          "indexed": false,
          "internalType": "uint256",
          "name": "value",
          "type": "uint256"
        }
      ],
      "name": "Transfer",
      "type": "event"
    },
    {
      "inputs": [
        {
          "internalType": "address",
          "name": "owner",
          "type": "address"
        },
        {
          "internalType": "address",
          "name": "spender",
          "type": "address"
        }
      ],
      "name": "allowance",
      "outputs": [
        {
          "internalType": "uint256",
          "name": "",
          "type": "uint256"
        }
      ],
      "stateMutability": "view",
      "type": "function"
    },
    {
      "inputs": [
        {
          "internalType": "address",
          "name": "spender",
          "type": "address"
        },
        {
          "internalType": "uint256",
          "name": "value",
          "type": "uint256"
        }
      ],
      "name": "approve",
      "outputs": [
        {
          "internalType": "bool",
          "name": "",
          "type": "bool"
        }
      ],
      "stateMutability": "nonpayable",
      "type": "function"
    },
    {
      "inputs": [
        {
          "internalType": "address",
          "name": "account",
          "type": "address"
        }
      ],
      "name": "balanceOf",
      "outputs": [
        {
          "internalType": "uint256",
          "name": "",
          "type": "uint256"
        }
      ],
      "stateMutability": "view",
      "type": "function"
    },
    {
      "inputs": [
        {
          "internalType": "address",
          "name": "from",
          "type": "address"
        },
        {
          "internalType": "uint256",
          "name": "amount",
          "type": "uint256"
        }
      ],
      "name": "burn",
      "outputs": [],
      "stateMutability": "nonpayable",
      "type": "function"
    },
    {
      "inputs": [],
      "name": "decimals",
      "outputs": [
        {
          "internalType": "uint8",
          "name": "",
          "type": "uint8"
        }
      ],
      "stateMutability": "view",
      "type": "function"
    },
    {
      "inputs": [],
      "name": "getFundDescription",
      "outputs": [
        {
          "internalType": "string",
          "name": "",
          "type": "string"
        }
      ],
      "stateMutability": "view",
      "type": "function"
    },
    {
      "inputs": [
        {
          "internalType": "address",
          "name": "to",
          "type": "address"
        },
        {
          "internalType": "uint256",
          "name": "amount",
          "type": "uint256"
        }
      ],
      "name": "mint",
      "outputs": [],
      "stateMutability": "nonpayable",
      "type": "function"
    },
    {
      "inputs": [],
      "name": "name",
      "outputs": [
        {
          "internalType": "string",
          "name": "",
          "type": "string"
        }
      ],
      "stateMutability": "view",
      "type": "function"
    },
    {
      "inputs": [],
      "name": "owner",
      "outputs": [
        {
          "internalType": "address",
          "name": "",
          "type": "address"
        }
      ],
      "stateMutability": "view",
      "type": "function"
    },
    {
      "inputs": [],
      "name": "renounceOwnership",
      "outputs": [],
      "stateMutability": "nonpayable",
      "type": "function"
    },
    {
      "inputs": [],
      "name": "symbol",
      "outputs": [
        {
          "internalType": "string",
          "name": "",
          "type": "string"
        }
      ],
      "stateMutability": "view",
      "type": "function"
    },
    {
      "inputs": [],
      "name": "totalSupply",
      "outputs": [
        {
          "internalType": "uint256",
          "name": "",
          "type": "uint256"
        }
      ],
      "stateMutability": "view",
      "type": "function"
    },
    {
      "inputs": [
        {
          "internalType": "address",
          "name": "to",
          "type": "address"
        },
        {
          "internalType": "uint256",
          "name": "value",
          "type": "uint256"
        }
      ],
      "name": "transfer",
      "outputs": [
        {
          "internalType": "bool",
          "name": "",
          "type": "bool"
        }
      ],
      "stateMutability": "nonpayable",
      "type": "function"
    },
    {
      "inputs": [
        {
          "internalType": "address",
          "name": "from",
          "type": "address"
        },
        {
          "internalType": "address",
          "name": "to",
          "type": "address"
        },
        {
          "internalType": "uint256",
          "name": "value",
          "type": "uint256"
        }
      ],
      "name": "transferFrom",
      "outputs": [
        {
          "internalType": "bool",
          "name": "",
          "type": "bool"
        }
      ],
      "stateMutability": "nonpayable",
      "type": "function"
    },
    {
      "inputs": [
        {
          "internalType": "address",
          "name": "newOwner",
          "type": "address"
        }
      ],
      "name": "transferOwnership",
      "outputs": [],
      "stateMutability": "nonpayable",
      "type": "function"
    }
  ],
  "bytecode": "0x60a060405234801561001057600080fd5b50604051611b78380380611b7883398181016040528101906100329190610374565b33848481600390816100449190610650565b5080600490816100549190610650565b505050600073ffffffffffffffffffffffffffffffffffffffff168173ffffffffffffffffffffffffffffffffffffffff16036100c95760006040517f1e4fbdf70000000000000000000000000000000000000000000000000000000081526004016100c09190610763565b60405180910390fd5b6100d88161010060201b60201c565b508160ff1660808160ff168152505080600690816100f69190610650565b505050505061077e565b6000600560009054906101000a900473ffffffffffffffffffffffffffffffffffffffff16905081600560006101000a81548173ffffffffffffffffffffffffffffffffffffffff021916908373ffffffffffffffffffffffffffffffffffffffff1602179055508173ffffffffffffffffffffffffffffffffffffffff168173ffffffffffffffffffffffffffffffffffffffff167f8be0079c531659141344cd1fd0a4f28419497f9722a3daafe3b4186f6b6457e060405160405180910390a35050565b6000604051905090565b600080fd5b600080fd5b600080fd5b600080fd5b6000601f19601f8301169050919050565b7f4e487b7100000000000000000000000000000000000000000000000000000000600052604160045260246000fd5b61022d826101e4565b810181811067ffffffffffffffff8211171561024c5761024b6101f5565b5b80604052505050565b600061025f6101c6565b905061026b8282610224565b919050565b600067ffffffffffffffff82111561028b5761028a6101f5565b5b610294826101e4565b9050602081019050919050565b60005b838110156102bf5780820151818401526020810190506102a4565b60008484015250505050565b60006102de6102d984610270565b610255565b9050828152602081018484840111156102fa576102f96101df565b5b6103058482856102a1565b509392505050565b600082601f830112610322576103216101da565b5b81516103328482602086016102cb565b91505092915050565b600060ff82169050919050565b6103518161033b565b811461035c57600080fd5b50565b60008151905061036e81610348565b92915050565b6000806000806080858703121561038e5761038d6101d0565b5b600085015167ffffffffffffffff8111156103ac576103ab6101d5565b5b6103b88782880161030d565b945050602085015167ffffffffffffffff8111156103d9576103d86101d5565b5b6103e58782880161030d565b93505060406103f68782880161035f565b925050606085015167ffffffffffffffff811115610417576104166101d5565b5b6104238782880161030d565b91505092959194509250565b600081519050919050565b7f4e487b7100000000000000000000000000000000000000000000000000000000600052602260045260246000fd5b6000600282049050600182168061048157607f821691505b6020821081036104945761049361043a565b5b50919050565b60008190508160005260206000209050919050565b60006020601f8301049050919050565b600082821b905092915050565b6000600883026104fc7fffffffffffffffffffffffffffffffffffffffffffffffffffffffffffffffff826104bf565b61050686836104bf565b95508019841693508086168417925050509392505050565b6000819050919050565b6000819050919050565b600061054d6105486105438461051e565b610528565b61051e565b9050919050565b6000819050919050565b61056783610532565b61057b61057382610554565b8484546104cc565b825550505050565b600090565b610590610583565b61059b81848461055e565b505050565b5b818110156105bf576105b4600082610588565b6001810190506105a1565b5050565b601f821115610604576105d58161049a565b6105de846104af565b810160208510156105ed578190505b6106016105f9856104af565b8301826105a0565b50505b505050565b600082821c905092915050565b600061062760001984600802610609565b1980831691505092915050565b60006106408383610616565b9150826002028217905092915050565b6106598261042f565b67ffffffffffffffff811115610672576106716101f5565b5b61067c8254610469565b6106878282856105c3565b600060209050601f8311600181146106ba57600084156106a8578287015190505b6106b28582610634565b86555061071a565b601f1984166106c88661049a565b60005b828110156106f0578489015182556001820191506020850194506020810190506106cb565b8683101561070d5784890151610709601f891682610616565b8355505b6001600288020188555050505b505050505050565b600073ffffffffffffffffffffffffffffffffffffffff82169050919050565b600061074d82610722565b9050919050565b61075d81610742565b82525050565b60006020820190506107786000830184610754565b92915050565b6080516113df61079960003960006103ee01526113df6000f3fe608060405234801561001057600080fd5b50600436106100f55760003560e01c8063715018a611610097578063a9059cbb11610066578063a9059cbb14610262578063dd62ed3e14610292578063e7524f1a146102c2578063f2fde38b146102e0576100f5565b8063715018a6146102005780638da5cb5b1461020a57806395d89b41146102285780639dc29fac14610246576100f5565b806323b872dd116100d357806323b872dd14610166578063313ce5671461019657806340c10f19146101b457806370a08231146101d0576100f5565b806306fdde03146100fa578063095ea7b31461011857806318160ddd14610148575b600080fd5b6101026102fc565b60405161010f9190611033565b60405180910390f35b610132600480360381019061012d91906110ee565b61038e565b60405161013f9190611149565b60405180910390f35b6101506103b1565b60405161015d9190611173565b60405180910390f35b610180600480360381019061017b919061118e565b6103bb565b60405161018d9190611149565b60405180910390f35b61019e6103ea565b6040516101ab91906111fd565b60405180910390f35b6101ce60048036038101906101c991906110ee565b610412565b005b6101ea60048036038101906101e59190611218565b610476565b6040516101f79190611173565b60405180910390f35b6102086104be565b005b6102126104d2565b60405161021f9190611254565b60405180910390f35b6102306104fc565b60405161023d9190611033565b60405180910390f35b610260600480360381019061025b91906110ee565b61058e565b005b61027c600480360381019061027791906110ee565b6105f2565b6040516102899190611149565b60405180910390f35b6102ac60048036038101906102a7919061126f565b610615565b6040516102b99190611173565b60405180910390f35b6102ca61069c565b6040516102d79190611033565b60405180910390f35b6102fa60048036038101906102f59190611218565b61072e565b005b60606003805461030b906112de565b80601f0160208091040260200160405190810160405280929190818152602001828054610337906112de565b80156103845780601f1061035957610100808354040283529160200191610384565b820191906000526020600020905b81548152906001019060200180831161036757829003601f168201915b5050505050905090565b6000806103996107b4565b90506103a68185856107bc565b600191505092915050565b6000600254905090565b6000806103c66107b4565b90506103d38582856107ce565b6103de858585610862565b60019150509392505050565b60007f0000000000000000000000000000000000000000000000000000000000000000905090565b61041a610956565b61042482826109dd565b8173ffffffffffffffffffffffffffffffffffffffff167fb90ef9fd6a54a95815ed8454340cca052061193636dcb8ae50f40de2e5e6cda28260405161046a9190611173565b60405180910390a25050565b60008060008373ffffffffffffffffffffffffffffffffffffffff1673ffffffffffffffffffffffffffffffffffffffff168152602001908152602001600020549050919050565b6104c6610956565b6104d06000610a5f565b565b6000600560009054906101000a900473ffffffffffffffffffffffffffffffffffffffff16905090565b60606004805461050b906112de565b80601f0160208091040260200160405190810160405280929190818152602001828054610537906112de565b80156105845780601f1061055957610100808354040283529160200191610584565b820191906000526020600020905b81548152906001019060200180831161056757829003601f168201915b5050505050905090565b610596610956565b6105a08282610b25565b8173ffffffffffffffffffffffffffffffffffffffff167f78485ac10c1923f840931fc79d753a3e66e4b26eb768c866a51a453300309fce826040516105e69190611173565b60405180910390a25050565b6000806105fd6107b4565b905061060a818585610862565b600191505092915050565b6000600160008473ffffffffffffffffffffffffffffffffffffffff1673ffffffffffffffffffffffffffffffffffffffff16815260200190815260200160002060008373ffffffffffffffffffffffffffffffffffffffff1673ffffffffffffffffffffffffffffffffffffffff16815260200190815260200160002054905092915050565b6060600680546106ab906112de565b80601f01602080910402602001604051908101604052809291908181526020018280546106d7906112de565b80156107245780601f106106f957610100808354040283529160200191610724565b820191906000526020600020905b81548152906001019060200180831161070757829003601f168201915b5050505050905090565b610736610956565b600073ffffffffffffffffffffffffffffffffffffffff168173ffffffffffffffffffffffffffffffffffffffff16036107a85760006040517f1e4fbdf700000000000000000000000000000000000000000000000000000000815260040161079f9190611254565b60405180910390fd5b6107b181610a5f565b50565b600033905090565b6107c98383836001610ba7565b505050565b60006107da8484610615565b90507fffffffffffffffffffffffffffffffffffffffffffffffffffffffffffffffff811461085c578181101561084c578281836040517ffb8f41b20000000000000000000000000000000000000000000000000000000081526004016108439392919061130f565b60405180910390fd5b61085b84848484036000610ba7565b5b50505050565b600073ffffffffffffffffffffffffffffffffffffffff168373ffffffffffffffffffffffffffffffffffffffff16036108d45760006040517f96c6fd1e0000000000000000000000000000000000000000000000000000000081526004016108cb9190611254565b60405180910390fd5b600073ffffffffffffffffffffffffffffffffffffffff168273ffffffffffffffffffffffffffffffffffffffff16036109465760006040517fec442f0500000000000000000000000000000000000000000000000000000000815260040161093d9190611254565b60405180910390fd5b610951838383610d7e565b505050565b61095e6107b4565b73ffffffffffffffffffffffffffffffffffffffff1661097c6104d2565b73ffffffffffffffffffffffffffffffffffffffff16146109db5761099f6107b4565b6040517f118cdaa70000000000000000000000000000000000000000000000000000000081526004016109d29190611254565b60405180910390fd5b565b600073ffffffffffffffffffffffffffffffffffffffff168273ffffffffffffffffffffffffffffffffffffffff1603610a4f5760006040517fec442f05000000000000000000000000000000000000000000000000000000008152600401610a469190611254565b60405180910390fd5b610a5b60008383610d7e565b5050565b6000600560009054906101000a900473ffffffffffffffffffffffffffffffffffffffff16905081600560006101000a81548173ffffffffffffffffffffffffffffffffffffffff021916908373ffffffffffffffffffffffffffffffffffffffff1602179055508173ffffffffffffffffffffffffffffffffffffffff168173ffffffffffffffffffffffffffffffffffffffff167f8be0079c531659141344cd1fd0a4f28419497f9722a3daafe3b4186f6b6457e060405160405180910390a35050565b600073ffffffffffffffffffffffffffffffffffffffff168273ffffffffffffffffffffffffffffffffffffffff1603610b975760006040517f96c6fd1e000000000000000000000000000000000000000000000000000000008152600401610b8e9190611254565b60405180910390fd5b610ba382600083610d7e565b5050565b600073ffffffffffffffffffffffffffffffffffffffff168473ffffffffffffffffffffffffffffffffffffffff1603610c195760006040517fe602df05000000000000000000000000000000000000000000000000000000008152600401610c109190611254565b60405180910390fd5b600073ffffffffffffffffffffffffffffffffffffffff168373ffffffffffffffffffffffffffffffffffffffff1603610c8b5760006040517f94280d62000000000000000000000000000000000000000000000000000000008152600401610c829190611254565b60405180910390fd5b81600160008673ffffffffffffffffffffffffffffffffffffffff1673ffffffffffffffffffffffffffffffffffffffff16815260200190815260200160002060008573ffffffffffffffffffffffffffffffffffffffff1673ffffffffffffffffffffffffffffffffffffffff168152602001908152602001600020819055508015610d78578273ffffffffffffffffffffffffffffffffffffffff168473ffffffffffffffffffffffffffffffffffffffff167f8c5be1e5ebec7d5bd14f71427d1e84f3dd0314c0f7b2291e5b200ac8c7c3b92584604051610d6f9190611173565b60405180910390a35b50505050565b600073ffffffffffffffffffffffffffffffffffffffff168373ffffffffffffffffffffffffffffffffffffffff1603610dd0578060026000828254610dc49190611375565b92505081905550610ea3565b60008060008573ffffffffffffffffffffffffffffffffffffffff1673ffffffffffffffffffffffffffffffffffffffff16815260200190815260200160002054905081811015610e5c578381836040517fe450d38c000000000000000000000000000000000000000000000000000000008152600401610e539392919061130f565b60405180910390fd5b8181036000808673ffffffffffffffffffffffffffffffffffffffff1673ffffffffffffffffffffffffffffffffffffffff16815260200190815260200160002081905550505b600073ffffffffffffffffffffffffffffffffffffffff168273ffffffffffffffffffffffffffffffffffffffff1603610eec5780600260008282540392505081905550610f39565b806000808473ffffffffffffffffffffffffffffffffffffffff1673ffffffffffffffffffffffffffffffffffffffff168152602001908152602001600020600082825401925050819055505b8173ffffffffffffffffffffffffffffffffffffffff168373ffffffffffffffffffffffffffffffffffffffff167fddf252ad1be2c89b69c2b068fc378daa952ba7f163c4a11628f55a4df523b3ef83604051610f969190611173565b60405180910390a3505050565b600081519050919050565b600082825260208201905092915050565b60005b83811015610fdd578082015181840152602081019050610fc2565b60008484015250505050565b6000601f19601f8301169050919050565b600061100582610fa3565b61100f8185610fae565b935061101f818560208601610fbf565b61102881610fe9565b840191505092915050565b6000602082019050818103600083015261104d8184610ffa565b905092915050565b600080fd5b600073ffffffffffffffffffffffffffffffffffffffff82169050919050565b60006110858261105a565b9050919050565b6110958161107a565b81146110a057600080fd5b50565b6000813590506110b28161108c565b92915050565b6000819050919050565b6110cb816110b8565b81146110d657600080fd5b50565b6000813590506110e8816110c2565b92915050565b6000806040838503121561110557611104611055565b5b6000611113858286016110a3565b9250506020611124858286016110d9565b9150509250929050565b60008115159050919050565b6111438161112e565b82525050565b600060208201905061115e600083018461113a565b92915050565b61116d816110b8565b82525050565b60006020820190506111886000830184611164565b92915050565b6000806000606084860312156111a7576111a6611055565b5b60006111b5868287016110a3565b93505060206111c6868287016110a3565b92505060406111d7868287016110d9565b9150509250925092565b600060ff82169050919050565b6111f7816111e1565b82525050565b600060208201905061121260008301846111ee565b92915050565b60006020828403121561122e5761122d611055565b5b600061123c848285016110a3565b91505092915050565b61124e8161107a565b82525050565b60006020820190506112696000830184611245565b92915050565b6000806040838503121561128657611285611055565b5b6000611294858286016110a3565b92505060206112a5858286016110a3565b9150509250929050565b7f4e487b7100000000000000000000000000000000000000000000000000000000600052602260045260246000fd5b600060028204905060018216806112f657607f821691505b602082108103611309576113086112af565b5b50919050565b60006060820190506113246000830186611245565b6113316020830185611164565b61133e6040830184611164565b949350505050565b7f4e487b7100000000000000000000000000000000000000000000000000000000600052601160045260246000fd5b6000611380826110b8565b915061138b836110b8565b92508282019050808211156113a3576113a2611346565b5b9291505056fea2646970667358221220a31364f1a1eb75dca99e11b34c07f04b7d18324188030fb52f0c88d988add51564736f6c634300081c0033",
  "linkReferences": {},
  "deployedLinkReferences": {}
}