{
  "_format": "hh-sol-artifact-1",
  "contractName": "InvestorPortfolioManager",
  "sourceName": "contracts/InvestorPortfolioManager.sol",
  "abi": [
    {
      "inputs": [
        {
          "internalType": "address",
          "name": "_modelPortfolioManagerAddress",
          "type": "address"
        }
      ],
      "stateMutability": "nonpayable",
      "type": "constructor"
    },
    {
      "inputs": [
        {
          "internalType": "address",
          "name": "owner",
          "type": "address"
        }
      ],
      "name": "OwnableInvalidOwner",
      "type": "error"
    },
    {
      "inputs": [
        {
          "internalType": "address",
          "name": "account",
          "type": "address"
        }
      ],
      "name": "OwnableUnauthorizedAccount",
      "type": "error"
    },
    {
      "anonymous": false,
      "inputs": [
        {
          "indexed": true,
          "internalType": "address",
          "name": "investor",
          "type": "address"
        },
        {
          "indexed": false,
          "internalType": "uint256",
          "name": "amount",
          "type": "uint256"
        }
      ],
      "name": "FundsDeposited",
      "type": "event"
    },
    {
      "anonymous": false,
      "inputs": [
        {
          "indexed": true,
          "internalType": "address",
          "name": "investor",
          "type": "address"
        },
        {
          "indexed": false,
          "internalType": "uint256",
          "name": "amount",
          "type": "uint256"
        }
      ],
      "name": "FundsWithdrawn",
      "type": "event"
    },
    {
      "anonymous": false,
      "inputs": [
        {
          "indexed": true,
          "internalType": "address",
          "name": "previousOwner",
          "type": "address"
        },
        {
          "indexed": true,
          "internalType": "address",
          "name": "newOwner",
          "type": "address"
        }
      ],
      "name": "OwnershipTransferred",
      "type": "event"
    },
    {
      "anonymous": false,
      "inputs": [
        {
          "indexed": true,
          "internalType": "address",
          "name": "investor",
          "type": "address"
        },
        {
          "indexed": false,
          "internalType": "uint256",
          "name": "modelPortfolioId",
          "type": "uint256"
        }
      ],
      "name": "PortfolioAssigned",
      "type": "event"
    },
    {
      "anonymous": false,
      "inputs": [
        {
          "indexed": true,
          "internalType": "address",
          "name": "investor",
          "type": "address"
        }
      ],
      "name": "PortfolioRebalanced",
      "type": "event"
    },
    {
      "inputs": [
        {
          "internalType": "address",
          "name": "investor",
          "type": "address"
        },
        {
          "internalType": "uint256",
          "name": "modelPortfolioId",
          "type": "uint256"
        },
        {
          "internalType": "address",
          "name": "primaryStablecoin",
          "type": "address"
        }
      ],
      "name": "assignModelPortfolio",
      "outputs": [],
      "stateMutability": "nonpayable",
      "type": "function"
    },
    {
      "inputs": [
        {
          "internalType": "uint256",
          "name": "amount",
          "type": "uint256"
        }
      ],
      "name": "deposit",
      "outputs": [],
      "stateMutability": "nonpayable",
      "type": "function"
    },
    {
      "inputs": [
        {
          "internalType": "address",
          "name": "investor",
          "type": "address"
        }
      ],
      "name": "getPortfolioValue",
      "outputs": [
        {
          "internalType": "uint256",
          "name": "",
          "type": "uint256"
        }
      ],
      "stateMutability": "view",
      "type": "function"
    },
    {
      "inputs": [],
      "name": "modelPortfolioManager",
      "outputs": [
        {
          "internalType": "contract ModelPortfolioManager",
          "name": "",
          "type": "address"
        }
      ],
      "stateMutability": "view",
      "type": "function"
    },
    {
      "inputs": [],
      "name": "owner",
      "outputs": [
        {
          "internalType": "address",
          "name": "",
          "type": "address"
        }
      ],
      "stateMutability": "view",
      "type": "function"
    },
    {
      "inputs": [
        {
          "internalType": "address",
          "name": "investor",
          "type": "address"
        }
      ],
      "name": "rebalancePortfolio",
      "outputs": [],
      "stateMutability": "nonpayable",
      "type": "function"
    },
    {
      "inputs": [],
      "name": "renounceOwnership",
      "outputs": [],
      "stateMutability": "nonpayable",
      "type": "function"
    },
    {
      "inputs": [
        {
          "internalType": "address",
          "name": "newOwner",
          "type": "address"
        }
      ],
      "name": "transferOwnership",
      "outputs": [],
      "stateMutability": "nonpayable",
      "type": "function"
    },
    {
      "inputs": [
        {
          "internalType": "uint256",
          "name": "amount",
          "type": "uint256"
        }
      ],
      "name": "withdraw",
      "outputs": [],
      "stateMutability": "nonpayable",
      "type": "function"
    }
  ],
  "bytecode": "0x608060405234801561001057600080fd5b50604051611ad5380380611ad583398181016040528101906100329190610223565b33600073ffffffffffffffffffffffffffffffffffffffff168173ffffffffffffffffffffffffffffffffffffffff16036100a55760006040517f1e4fbdf700000000000000000000000000000000000000000000000000000000815260040161009c919061025f565b60405180910390fd5b6100b4816100fc60201b60201c565b5080600260006101000a81548173ffffffffffffffffffffffffffffffffffffffff021916908373ffffffffffffffffffffffffffffffffffffffff1602179055505061027a565b60008060009054906101000a900473ffffffffffffffffffffffffffffffffffffffff169050816000806101000a81548173ffffffffffffffffffffffffffffffffffffffff021916908373ffffffffffffffffffffffffffffffffffffffff1602179055508173ffffffffffffffffffffffffffffffffffffffff168173ffffffffffffffffffffffffffffffffffffffff167f8be0079c531659141344cd1fd0a4f28419497f9722a3daafe3b4186f6b6457e060405160405180910390a35050565b600080fd5b600073ffffffffffffffffffffffffffffffffffffffff82169050919050565b60006101f0826101c5565b9050919050565b610200816101e5565b811461020b57600080fd5b50565b60008151905061021d816101f7565b92915050565b600060208284031215610239576102386101c0565b5b60006102478482850161020e565b91505092915050565b610259816101e5565b82525050565b60006020820190506102746000830184610250565b92915050565b61184c806102896000396000f3fe608060405234801561001057600080fd5b50600436106100935760003560e01c80638ad7d6fe116100665780638ad7d6fe146100f65780638c81e4d1146101145780638da5cb5b14610144578063b6b55f2514610162578063f2fde38b1461017e57610093565b80631a3075cc146100985780631f8e96b8146100b45780632e1a7d4d146100d0578063715018a6146100ec575b600080fd5b6100b260048036038101906100ad91906110c9565b61019a565b005b6100ce60048036038101906100c9919061112c565b610236565b005b6100ea60048036038101906100e5919061117f565b610321565b005b6100f4610783565b005b6100fe610797565b60405161010b919061120b565b60405180910390f35b61012e600480360381019061012991906110c9565b6107bd565b60405161013b9190611235565b60405180910390f35b61014c6108ee565b604051610159919061125f565b60405180910390f35b61017c6004803603810190610177919061117f565b610917565b005b610198600480360381019061019391906110c9565b610aa1565b005b600260009054906101000a900473ffffffffffffffffffffffffffffffffffffffff1673ffffffffffffffffffffffffffffffffffffffff163373ffffffffffffffffffffffffffffffffffffffff161461022a576040517f08c379a0000000000000000000000000000000000000000000000000000000008152600401610221906112d7565b60405180910390fd5b61023381610b27565b50565b61023e610f04565b6000600160008573ffffffffffffffffffffffffffffffffffffffff1673ffffffffffffffffffffffffffffffffffffffff1681526020019081526020016000209050828160000181905550818160020160006101000a81548173ffffffffffffffffffffffffffffffffffffffff021916908373ffffffffffffffffffffffffffffffffffffffff1602179055508373ffffffffffffffffffffffffffffffffffffffff167f906810c36f0fbb11702b1663d6b6acc36a003722d533d51feb80af28f5b699fb846040516103139190611235565b60405180910390a250505050565b6000600160003373ffffffffffffffffffffffffffffffffffffffff1673ffffffffffffffffffffffffffffffffffffffff168152602001908152602001600020905060008160000154036103ab576040517f08c379a00000000000000000000000000000000000000000000000000000000081526004016103a290611343565b60405180910390fd5b60008160020160009054906101000a900473ffffffffffffffffffffffffffffffffffffffff1673ffffffffffffffffffffffffffffffffffffffff166370a08231306040518263ffffffff1660e01b815260040161040a919061125f565b602060405180830381865afa158015610427573d6000803e3d6000fd5b505050506040513d601f19601f8201168201806040525081019061044b9190611378565b905080831115610490576040517f08c379a0000000000000000000000000000000000000000000000000000000008152600401610487906113f1565b60405180910390fd5b6000600260009054906101000a900473ffffffffffffffffffffffffffffffffffffffff1673ffffffffffffffffffffffffffffffffffffffff1663adc8cd1584600001546040518263ffffffff1660e01b81526004016104f19190611235565b600060405180830381865afa15801561050e573d6000803e3d6000fd5b505050506040513d6000823e3d601f19601f8201168201806040525081019061053791906115d4565b905060005b815181101561068257600082828151811061055a5761055961161d565b5b6020026020010151600001519050600084878373ffffffffffffffffffffffffffffffffffffffff166370a08231306040518263ffffffff1660e01b81526004016105a5919061125f565b602060405180830381865afa1580156105c2573d6000803e3d6000fd5b505050506040513d601f19601f820116820180604052508101906105e69190611378565b6105f0919061167b565b6105fa91906116ec565b90506000811115610673578173ffffffffffffffffffffffffffffffffffffffff16639dc29fac30836040518363ffffffff1660e01b815260040161064092919061171d565b600060405180830381600087803b15801561065a57600080fd5b505af115801561066e573d6000803e3d6000fd5b505050505b5050808060010191505061053c565b508260020160009054906101000a900473ffffffffffffffffffffffffffffffffffffffff1673ffffffffffffffffffffffffffffffffffffffff1663a9059cbb33866040518363ffffffff1660e01b81526004016106e292919061171d565b6020604051808303816000875af1158015610701573d6000803e3d6000fd5b505050506040513d601f19601f82011682018060405250810190610725919061177e565b5061072f33610b27565b3373ffffffffffffffffffffffffffffffffffffffff167feaff4b37086828766ad3268786972c0cd24259d4c87a80f9d3963a3c3d999b0d856040516107759190611235565b60405180910390a250505050565b61078b610f04565b6107956000610f8b565b565b600260009054906101000a900473ffffffffffffffffffffffffffffffffffffffff1681565b600080600160008473ffffffffffffffffffffffffffffffffffffffff1673ffffffffffffffffffffffffffffffffffffffff16815260200190815260200160002090506000816000015403610848576040517f08c379a000000000000000000000000000000000000000000000000000000000815260040161083f90611343565b60405180910390fd5b8060020160009054906101000a900473ffffffffffffffffffffffffffffffffffffffff1673ffffffffffffffffffffffffffffffffffffffff166370a08231306040518263ffffffff1660e01b81526004016108a5919061125f565b602060405180830381865afa1580156108c2573d6000803e3d6000fd5b505050506040513d601f19601f820116820180604052508101906108e69190611378565b915050919050565b60008060009054906101000a900473ffffffffffffffffffffffffffffffffffffffff16905090565b6000600160003373ffffffffffffffffffffffffffffffffffffffff1673ffffffffffffffffffffffffffffffffffffffff168152602001908152602001600020905060008160000154036109a1576040517f08c379a000000000000000000000000000000000000000000000000000000000815260040161099890611343565b60405180910390fd5b8060020160009054906101000a900473ffffffffffffffffffffffffffffffffffffffff1673ffffffffffffffffffffffffffffffffffffffff166323b872dd3330856040518463ffffffff1660e01b8152600401610a02939291906117ab565b6020604051808303816000875af1158015610a21573d6000803e3d6000fd5b505050506040513d601f19601f82011682018060405250810190610a45919061177e565b50610a4f33610b27565b3373ffffffffffffffffffffffffffffffffffffffff167f543ba50a5eec5e6178218e364b1d0f396157b3c8fa278522c2cb7fd99407d47483604051610a959190611235565b60405180910390a25050565b610aa9610f04565b600073ffffffffffffffffffffffffffffffffffffffff168173ffffffffffffffffffffffffffffffffffffffff1603610b1b5760006040517f1e4fbdf7000000000000000000000000000000000000000000000000000000008152600401610b12919061125f565b60405180910390fd5b610b2481610f8b565b50565b6000600160008373ffffffffffffffffffffffffffffffffffffffff1673ffffffffffffffffffffffffffffffffffffffff16815260200190815260200160002090506000600260009054906101000a900473ffffffffffffffffffffffffffffffffffffffff1673ffffffffffffffffffffffffffffffffffffffff1663adc8cd1583600001546040518263ffffffff1660e01b8152600401610bcb9190611235565b600060405180830381865afa158015610be8573d6000803e3d6000fd5b505050506040513d6000823e3d601f19601f82011682018060405250810190610c1191906115d4565b905060008260020160009054906101000a900473ffffffffffffffffffffffffffffffffffffffff1673ffffffffffffffffffffffffffffffffffffffff166370a08231306040518263ffffffff1660e01b8152600401610c72919061125f565b602060405180830381865afa158015610c8f573d6000803e3d6000fd5b505050506040513d601f19601f82011682018060405250810190610cb39190611378565b905060005b8251811015610eba576000838281518110610cd657610cd561161d565b5b60200260200101516000015190506000848381518110610cf957610cf861161d565b5b602002602001015160200151905060006127108286610d18919061167b565b610d2291906116ec565b905060008373ffffffffffffffffffffffffffffffffffffffff166370a08231306040518263ffffffff1660e01b8152600401610d5f919061125f565b602060405180830381865afa158015610d7c573d6000803e3d6000fd5b505050506040513d601f19601f82011682018060405250810190610da09190611378565b905081811015610e27578373ffffffffffffffffffffffffffffffffffffffff166340c10f19308385610dd391906117e2565b6040518363ffffffff1660e01b8152600401610df092919061171d565b600060405180830381600087803b158015610e0a57600080fd5b505af1158015610e1e573d6000803e3d6000fd5b50505050610ea9565b81811115610ea8578373ffffffffffffffffffffffffffffffffffffffff16639dc29fac308484610e5891906117e2565b6040518363ffffffff1660e01b8152600401610e7592919061171d565b600060405180830381600087803b158015610e8f57600080fd5b505af1158015610ea3573d6000803e3d6000fd5b505050505b5b505050508080600101915050610cb8565b508373ffffffffffffffffffffffffffffffffffffffff167f4b7c2781af32cb28916c684579e4c166d4e48e9a8b4c6045de00a632d7d433d760405160405180910390a250505050565b610f0c61104f565b73ffffffffffffffffffffffffffffffffffffffff16610f2a6108ee565b73ffffffffffffffffffffffffffffffffffffffff1614610f8957610f4d61104f565b6040517f118cdaa7000000000000000000000000000000000000000000000000000000008152600401610f80919061125f565b60405180910390fd5b565b60008060009054906101000a900473ffffffffffffffffffffffffffffffffffffffff169050816000806101000a81548173ffffffffffffffffffffffffffffffffffffffff021916908373ffffffffffffffffffffffffffffffffffffffff1602179055508173ffffffffffffffffffffffffffffffffffffffff168173ffffffffffffffffffffffffffffffffffffffff167f8be0079c531659141344cd1fd0a4f28419497f9722a3daafe3b4186f6b6457e060405160405180910390a35050565b600033905090565b6000604051905090565b600080fd5b600080fd5b600073ffffffffffffffffffffffffffffffffffffffff82169050919050565b60006110968261106b565b9050919050565b6110a68161108b565b81146110b157600080fd5b50565b6000813590506110c38161109d565b92915050565b6000602082840312156110df576110de611061565b5b60006110ed848285016110b4565b91505092915050565b6000819050919050565b611109816110f6565b811461111457600080fd5b50565b60008135905061112681611100565b92915050565b60008060006060848603121561114557611144611061565b5b6000611153868287016110b4565b935050602061116486828701611117565b9250506040611175868287016110b4565b9150509250925092565b60006020828403121561119557611194611061565b5b60006111a384828501611117565b91505092915050565b6000819050919050565b60006111d16111cc6111c78461106b565b6111ac565b61106b565b9050919050565b60006111e3826111b6565b9050919050565b60006111f5826111d8565b9050919050565b611205816111ea565b82525050565b600060208201905061122060008301846111fc565b92915050565b61122f816110f6565b82525050565b600060208201905061124a6000830184611226565b92915050565b6112598161108b565b82525050565b60006020820190506112746000830184611250565b92915050565b600082825260208201905092915050565b7f556e617574686f72697a65640000000000000000000000000000000000000000600082015250565b60006112c1600c8361127a565b91506112cc8261128b565b602082019050919050565b600060208201905081810360008301526112f0816112b4565b9050919050565b7f4e6f20706f7274666f6c696f2061737369676e65640000000000000000000000600082015250565b600061132d60158361127a565b9150611338826112f7565b602082019050919050565b6000602082019050818103600083015261135c81611320565b9050919050565b60008151905061137281611100565b92915050565b60006020828403121561138e5761138d611061565b5b600061139c84828501611363565b91505092915050565b7f496e73756666696369656e742062616c616e6365000000000000000000000000600082015250565b60006113db60148361127a565b91506113e6826113a5565b602082019050919050565b6000602082019050818103600083015261140a816113ce565b9050919050565b600080fd5b6000601f19601f8301169050919050565b7f4e487b7100000000000000000000000000000000000000000000000000000000600052604160045260246000fd5b61145f82611416565b810181811067ffffffffffffffff8211171561147e5761147d611427565b5b80604052505050565b6000611491611057565b905061149d8282611456565b919050565b600067ffffffffffffffff8211156114bd576114bc611427565b5b602082029050602081019050919050565b600080fd5b600080fd5b6000815190506114e78161109d565b92915050565b600060408284031215611503576115026114d3565b5b61150d6040611487565b9050600061151d848285016114d8565b600083015250602061153184828501611363565b60208301525092915050565b600061155061154b846114a2565b611487565b90508083825260208201905060408402830185811115611573576115726114ce565b5b835b8181101561159c578061158888826114ed565b845260208401935050604081019050611575565b5050509392505050565b600082601f8301126115bb576115ba611411565b5b81516115cb84826020860161153d565b91505092915050565b6000602082840312156115ea576115e9611061565b5b600082015167ffffffffffffffff81111561160857611607611066565b5b611614848285016115a6565b91505092915050565b7f4e487b7100000000000000000000000000000000000000000000000000000000600052603260045260246000fd5b7f4e487b7100000000000000000000000000000000000000000000000000000000600052601160045260246000fd5b6000611686826110f6565b9150611691836110f6565b925082820261169f816110f6565b915082820484148315176116b6576116b561164c565b5b5092915050565b7f4e487b7100000000000000000000000000000000000000000000000000000000600052601260045260246000fd5b60006116f7826110f6565b9150611702836110f6565b925082611712576117116116bd565b5b828204905092915050565b60006040820190506117326000830185611250565b61173f6020830184611226565b9392505050565b60008115159050919050565b61175b81611746565b811461176657600080fd5b50565b60008151905061177881611752565b92915050565b60006020828403121561179457611793611061565b5b60006117a284828501611769565b91505092915050565b60006060820190506117c06000830186611250565b6117cd6020830185611250565b6117da6040830184611226565b949350505050565b60006117ed826110f6565b91506117f8836110f6565b92508282039050818111156118105761180f61164c565b5b9291505056fea26469706673582212202cc5f66c9b042f06394447042f05ab765fd3616c00913a3c219f53076d957bb464736f6c634300081c0033",
  "linkReferences": {},
  "deployedLinkReferences": {}
}