{
  "_format": "hh-sol-artifact-1",
  "contractName": "ModelPortfolioManager",
  "sourceName": "contracts/ModelPortfolioManager.sol",
  "abi": [
    {
      "inputs": [],
      "stateMutability": "nonpayable",
      "type": "constructor"
    },
    {
      "inputs": [
        {
          "internalType": "address",
          "name": "owner",
          "type": "address"
        }
      ],
      "name": "OwnableInvalidOwner",
      "type": "error"
    },
    {
      "inputs": [
        {
          "internalType": "address",
          "name": "account",
          "type": "address"
        }
      ],
      "name": "OwnableUnauthorizedAccount",
      "type": "error"
    },
    {
      "anonymous": false,
      "inputs": [
        {
          "indexed": true,
          "internalType": "uint256",
          "name": "portfolioId",
          "type": "uint256"
        }
      ],
      "name": "ModelPortfolioCreated",
      "type": "event"
    },
    {
      "anonymous": false,
      "inputs": [
        {
          "indexed": true,
          "internalType": "uint256",
          "name": "portfolioId",
          "type": "uint256"
        }
      ],
      "name": "ModelPortfolioUpdated",
      "type": "event"
    },
    {
      "anonymous": false,
      "inputs": [
        {
          "indexed": true,
          "internalType": "address",
          "name": "previousOwner",
          "type": "address"
        },
        {
          "indexed": true,
          "internalType": "address",
          "name": "newOwner",
          "type": "address"
        }
      ],
      "name": "OwnershipTransferred",
      "type": "event"
    },
    {
      "inputs": [
        {
          "internalType": "address[]",
          "name": "fundAddresses",
          "type": "address[]"
        },
        {
          "internalType": "uint256[]",
          "name": "weights",
          "type": "uint256[]"
        }
      ],
      "name": "createModelPortfolio",
      "outputs": [
        {
          "internalType": "uint256",
          "name": "portfolioId",
          "type": "uint256"
        }
      ],
      "stateMutability": "nonpayable",
      "type": "function"
    },
    {
      "inputs": [
        {
          "internalType": "uint256",
          "name": "portfolioId",
          "type": "uint256"
        }
      ],
      "name": "getModelPortfolio",
      "outputs": [
        {
          "components": [
            {
              "internalType": "address",
              "name": "tokenAddress",
              "type": "address"
            },
            {
              "internalType": "uint256",
              "name": "targetWeight",
              "type": "uint256"
            }
          ],
          "internalType": "struct ModelPortfolioManager.FundAllocation[]",
          "name": "",
          "type": "tuple[]"
        }
      ],
      "stateMutability": "view",
      "type": "function"
    },
    {
      "inputs": [
        {
          "internalType": "address",
          "name": "managerAddress",
          "type": "address"
        }
      ],
      "name": "linkInvestorManager",
      "outputs": [],
      "stateMutability": "nonpayable",
      "type": "function"
    },
    {
      "inputs": [
        {
          "internalType": "address",
          "name": "",
          "type": "address"
        }
      ],
      "name": "linkedManagers",
      "outputs": [
        {
          "internalType": "bool",
          "name": "",
          "type": "bool"
        }
      ],
      "stateMutability": "view",
      "type": "function"
    },
    {
      "inputs": [],
      "name": "owner",
      "outputs": [
        {
          "internalType": "address",
          "name": "",
          "type": "address"
        }
      ],
      "stateMutability": "view",
      "type": "function"
    },
    {
      "inputs": [],
      "name": "renounceOwnership",
      "outputs": [],
      "stateMutability": "nonpayable",
      "type": "function"
    },
    {
      "inputs": [
        {
          "internalType": "address",
          "name": "newOwner",
          "type": "address"
        }
      ],
      "name": "transferOwnership",
      "outputs": [],
      "stateMutability": "nonpayable",
      "type": "function"
    },
    {
      "inputs": [
        {
          "internalType": "uint256",
          "name": "portfolioId",
          "type": "uint256"
        },
        {
          "internalType": "address[]",
          "name": "fundAddresses",
          "type": "address[]"
        },
        {
          "internalType": "uint256[]",
          "name": "weights",
          "type": "uint256[]"
        }
      ],
      "name": "updateModelPortfolio",
      "outputs": [],
      "stateMutability": "nonpayable",
      "type": "function"
    }
  ],
  "bytecode": "0x6080604052600160025534801561001557600080fd5b5033600073ffffffffffffffffffffffffffffffffffffffff168173ffffffffffffffffffffffffffffffffffffffff16036100895760006040517f1e4fbdf700000000000000000000000000000000000000000000000000000000815260040161008091906101a3565b60405180910390fd5b6100988161009e60201b60201c565b506101be565b60008060009054906101000a900473ffffffffffffffffffffffffffffffffffffffff169050816000806101000a81548173ffffffffffffffffffffffffffffffffffffffff021916908373ffffffffffffffffffffffffffffffffffffffff1602179055508173ffffffffffffffffffffffffffffffffffffffff168173ffffffffffffffffffffffffffffffffffffffff167f8be0079c531659141344cd1fd0a4f28419497f9722a3daafe3b4186f6b6457e060405160405180910390a35050565b600073ffffffffffffffffffffffffffffffffffffffff82169050919050565b600061018d82610162565b9050919050565b61019d81610182565b82525050565b60006020820190506101b86000830184610194565b92915050565b611201806101cd6000396000f3fe608060405234801561001057600080fd5b50600436106100885760003560e01c8063b37c9b541161005b578063b37c9b5414610115578063f2fde38b14610145578063f4018d9214610161578063ff25064f1461017d57610088565b80634ee934401461008d578063715018a6146100bd5780638da5cb5b146100c7578063adc8cd15146100e5575b600080fd5b6100a760048036038101906100a29190610a8b565b610199565b6040516100b49190610ad3565b60405180910390f35b6100c56101b9565b005b6100cf6101cd565b6040516100dc9190610afd565b60405180910390f35b6100ff60048036038101906100fa9190610b4e565b6101f6565b60405161010c9190610c77565b60405180910390f35b61012f600480360381019061012a9190610eb5565b6102c8565b60405161013c9190610f3c565b60405180910390f35b61015f600480360381019061015a9190610a8b565b6104e2565b005b61017b60048036038101906101769190610a8b565b610568565b005b61019760048036038101906101929190610f57565b6105cb565b005b60036020528060005260406000206000915054906101000a900460ff1681565b6101c161085c565b6101cb60006108e3565b565b60008060009054906101000a900473ffffffffffffffffffffffffffffffffffffffff16905090565b606060016000838152602001908152602001600020805480602002602001604051908101604052809291908181526020016000905b828210156102bd57838290600052602060002090600202016040518060400160405290816000820160009054906101000a900473ffffffffffffffffffffffffffffffffffffffff1673ffffffffffffffffffffffffffffffffffffffff1673ffffffffffffffffffffffffffffffffffffffff1681526020016001820154815250508152602001906001019061022b565b505050509050919050565b60006102d261085c565b8151835114610316576040517f08c379a000000000000000000000000000000000000000000000000000000000815260040161030d9061103f565b60405180910390fd5b600080600090505b835181101561044c5783818151811061033a5761033961105f565b5b60200260200101518261034d91906110bd565b915060016000600254815260200190815260200160002060405180604001604052808784815181106103825761038161105f565b5b602002602001015173ffffffffffffffffffffffffffffffffffffffff1681526020018684815181106103b8576103b761105f565b5b6020026020010151815250908060018154018082558091505060019003906000526020600020906002020160009091909190915060008201518160000160006101000a81548173ffffffffffffffffffffffffffffffffffffffff021916908373ffffffffffffffffffffffffffffffffffffffff160217905550602082015181600101555050808060010191505061031e565b506127108114610491576040517f08c379a000000000000000000000000000000000000000000000000000000000815260040161048890611163565b60405180910390fd5b6002549150817ff9eafd16a80a5bb55a92d8fa888b9312db9fd1e4085149bb434a7410d63c213360405160405180910390a2600260008154809291906104d690611183565b91905055505092915050565b6104ea61085c565b600073ffffffffffffffffffffffffffffffffffffffff168173ffffffffffffffffffffffffffffffffffffffff160361055c5760006040517f1e4fbdf70000000000000000000000000000000000000000000000000000000081526004016105539190610afd565b60405180910390fd5b610565816108e3565b50565b61057061085c565b6001600360008373ffffffffffffffffffffffffffffffffffffffff1673ffffffffffffffffffffffffffffffffffffffff16815260200190815260200160002060006101000a81548160ff02191690831515021790555050565b6105d361085c565b6001600084815260200190815260200160002060006105f291906109af565b600080600090505b8251811015610726578281815181106106165761061561105f565b5b60200260200101518261062991906110bd565b915060016000868152602001908152602001600020604051806040016040528086848151811061065c5761065b61105f565b5b602002602001015173ffffffffffffffffffffffffffffffffffffffff1681526020018584815181106106925761069161105f565b5b6020026020010151815250908060018154018082558091505060019003906000526020600020906002020160009091909190915060008201518160000160006101000a81548173ffffffffffffffffffffffffffffffffffffffff021916908373ffffffffffffffffffffffffffffffffffffffff16021790555060208201518160010155505080806001019150506105fa565b50612710811461076b576040517f08c379a000000000000000000000000000000000000000000000000000000000815260040161076290611163565b60405180910390fd5b837fd537d253ee78eb94da383a2bb732972c52c0388bd84e9fe08932093af37e25b060405160405180910390a2600360003373ffffffffffffffffffffffffffffffffffffffff1673ffffffffffffffffffffffffffffffffffffffff16815260200190815260200160002060009054906101000a900460ff1615610856573373ffffffffffffffffffffffffffffffffffffffff16631a3075cc336040518263ffffffff1660e01b81526004016108239190610afd565b600060405180830381600087803b15801561083d57600080fd5b505af1158015610851573d6000803e3d6000fd5b505050505b50505050565b6108646109a7565b73ffffffffffffffffffffffffffffffffffffffff166108826101cd565b73ffffffffffffffffffffffffffffffffffffffff16146108e1576108a56109a7565b6040517f118cdaa70000000000000000000000000000000000000000000000000000000081526004016108d89190610afd565b60405180910390fd5b565b60008060009054906101000a900473ffffffffffffffffffffffffffffffffffffffff169050816000806101000a81548173ffffffffffffffffffffffffffffffffffffffff021916908373ffffffffffffffffffffffffffffffffffffffff1602179055508173ffffffffffffffffffffffffffffffffffffffff168173ffffffffffffffffffffffffffffffffffffffff167f8be0079c531659141344cd1fd0a4f28419497f9722a3daafe3b4186f6b6457e060405160405180910390a35050565b600033905090565b50805460008255600202906000526020600020908101906109d091906109d3565b50565b5b80821115610a1557600080820160006101000a81549073ffffffffffffffffffffffffffffffffffffffff02191690556001820160009055506002016109d4565b5090565b6000604051905090565b600080fd5b600080fd5b600073ffffffffffffffffffffffffffffffffffffffff82169050919050565b6000610a5882610a2d565b9050919050565b610a6881610a4d565b8114610a7357600080fd5b50565b600081359050610a8581610a5f565b92915050565b600060208284031215610aa157610aa0610a23565b5b6000610aaf84828501610a76565b91505092915050565b60008115159050919050565b610acd81610ab8565b82525050565b6000602082019050610ae86000830184610ac4565b92915050565b610af781610a4d565b82525050565b6000602082019050610b126000830184610aee565b92915050565b6000819050919050565b610b2b81610b18565b8114610b3657600080fd5b50565b600081359050610b4881610b22565b92915050565b600060208284031215610b6457610b63610a23565b5b6000610b7284828501610b39565b91505092915050565b600081519050919050565b600082825260208201905092915050565b6000819050602082019050919050565b610bb081610a4d565b82525050565b610bbf81610b18565b82525050565b604082016000820151610bdb6000850182610ba7565b506020820151610bee6020850182610bb6565b50505050565b6000610c008383610bc5565b60408301905092915050565b6000602082019050919050565b6000610c2482610b7b565b610c2e8185610b86565b9350610c3983610b97565b8060005b83811015610c6a578151610c518882610bf4565b9750610c5c83610c0c565b925050600181019050610c3d565b5085935050505092915050565b60006020820190508181036000830152610c918184610c19565b905092915050565b600080fd5b6000601f19601f8301169050919050565b7f4e487b7100000000000000000000000000000000000000000000000000000000600052604160045260246000fd5b610ce782610c9e565b810181811067ffffffffffffffff82111715610d0657610d05610caf565b5b80604052505050565b6000610d19610a19565b9050610d258282610cde565b919050565b600067ffffffffffffffff821115610d4557610d44610caf565b5b602082029050602081019050919050565b600080fd5b6000610d6e610d6984610d2a565b610d0f565b90508083825260208201905060208402830185811115610d9157610d90610d56565b5b835b81811015610dba5780610da68882610a76565b845260208401935050602081019050610d93565b5050509392505050565b600082601f830112610dd957610dd8610c99565b5b8135610de9848260208601610d5b565b91505092915050565b600067ffffffffffffffff821115610e0d57610e0c610caf565b5b602082029050602081019050919050565b6000610e31610e2c84610df2565b610d0f565b90508083825260208201905060208402830185811115610e5457610e53610d56565b5b835b81811015610e7d5780610e698882610b39565b845260208401935050602081019050610e56565b5050509392505050565b600082601f830112610e9c57610e9b610c99565b5b8135610eac848260208601610e1e565b91505092915050565b60008060408385031215610ecc57610ecb610a23565b5b600083013567ffffffffffffffff811115610eea57610ee9610a28565b5b610ef685828601610dc4565b925050602083013567ffffffffffffffff811115610f1757610f16610a28565b5b610f2385828601610e87565b9150509250929050565b610f3681610b18565b82525050565b6000602082019050610f516000830184610f2d565b92915050565b600080600060608486031215610f7057610f6f610a23565b5b6000610f7e86828701610b39565b935050602084013567ffffffffffffffff811115610f9f57610f9e610a28565b5b610fab86828701610dc4565b925050604084013567ffffffffffffffff811115610fcc57610fcb610a28565b5b610fd886828701610e87565b9150509250925092565b600082825260208201905092915050565b7f46756e647320616e642077656967687473206d757374206d6174636800000000600082015250565b6000611029601c83610fe2565b915061103482610ff3565b602082019050919050565b600060208201905081810360008301526110588161101c565b9050919050565b7f4e487b7100000000000000000000000000000000000000000000000000000000600052603260045260246000fd5b7f4e487b7100000000000000000000000000000000000000000000000000000000600052601160045260246000fd5b60006110c882610b18565b91506110d383610b18565b92508282019050808211156110eb576110ea61108e565b5b92915050565b7f546f74616c2077656967687473206d75737420657175616c203130303030206260008201527f6173697320706f696e7473000000000000000000000000000000000000000000602082015250565b600061114d602b83610fe2565b9150611158826110f1565b604082019050919050565b6000602082019050818103600083015261117c81611140565b9050919050565b600061118e82610b18565b91507fffffffffffffffffffffffffffffffffffffffffffffffffffffffffffffffff82036111c0576111bf61108e565b5b60018201905091905056fea26469706673582212209e9b905e1ec4028e47c44970a66a1a57176009b7fe96db30921b1a9b14f21ea264736f6c634300081c0033",
  "linkReferences": {},
  "deployedLinkReferences": {}
}